:0C0000000C9453000C9400000C940000C1
:10000C000C9400000C9400000C9400000C94000064
:10001C000C9400000C9400000C9400000C94000054
:10002C000C9400000C9400000C9400000C94000044
:10003C000C9400000C9400000C9400000C94000034
:10004C000C9400000C9400001027E80364000A00D4
:10005C000100001000011000010014244481122240
:10006C0042821121418418284888010203F40405B6
:10007C0006F3070809F20A000CF16B6579203A3A8D
:10008C0020256400656570726F6D203A3A25640016
:10009C0080C0020060029C000000F894EE27ECBBCC
:1000AC00F1E0FBBFEBBFE5BF8DE0A2E0BB27ED931A
:1000BC008A95E9F780E098E0A0E6ED930197E9F7DF
:1000CC00EEE9F0E085919591009761F0A591B591DD
:1000DC0005901590BF01F00105900D920197E1F785
:1000EC00FB01F0CFEFE5EDBFE8E0EEBFC0E6D2E0FC
:1000FC000C948000E09780E2A0E0B0E0E6E6F0E04F
:10010C000E946704E0E0EABBEBBBE7BBE8BBE4BBE7
:10011C00E5BBE1BBE2BBE3BFE2BFECBFEFBDEEBDB5
:10012C00EDBDECBDE7BDE6BDEBBDEABDE9BDE8BD8F
:10013C00E2BDE5BDE4BDE3BDE9BFE5BFE4BFEAB99F
:10014C00E0E8E8B9E0E0E0BFE6B9EDB9E6BFA0E170
:10015C000E946303FE01FA93EA93DE01529607D0E4
:10016C00FA93EA93DE01929673D0F4CFFFCFBA9351
:10017C00AA930E94590400E010E03FEF43E050E0E6
:10018C000024041605067CF5EFE0E1BBE2BB0E94FF
:10019C00A90320B3E0EFE1BBE2BB0E94A903E0B3EB
:1001AC002E232030C1F0F801AAE0B0E00E94100428
:1001BC00FF93EF932A93E985FA85FA93EA93A9853D
:1001CC00BA8516D0AF91BF91EA0FFB1F8F01A2E346
:1001DC00B0E00E94F10341505040322FAAEFB0E042
:1001EC000E94F103CDCFF8010E9460042A96089575
:1001FC00BA93AA932297E0E0E883E9830E9459041A
:10020C0000E010E020E030E0EC85E030C9F040E0A8
:10021C0050E04031E0E05E079CF4FA01AA85BB8512
:10022C00AE0FBF1FEC91AC85EA1739F4FA01A88523
:10023C00B985AE0FBF1F0C9111274F5F5F4FE9CFF0
:10024C000E831F83EE81FF810E9460042D9608951A
:10025C00BA93AA93EA81FB81A0E0B0E00E9440042B
:10026C000E942F03E0E0EA93A0E00E94AD03E6E8D1
:10027C00F0E0FA93EA93EE81FF810E9403040E945E
:10028C00B403E0E0EA93A1E00E94AD03E0E9F0E002
:10029C00FA93EA93A0E0B0E00E9430046627772737
:1002AC000E94B40324960895BA93AA931A930A93BE
:1002BC00AA81BB8112960E942304309759F1AA811E
:1002CC00BB8114960E9423048F01309761F0023099
:1002DC00E0E01E0798F0F80131978F01AA81BB81ED
:1002EC001496ED93FC93AA81BB811296ED91FD912E
:1002FC003196FE93EE933197AC81A083AA81BB819A
:10030C000E942304FF232AF0ED91FD913196FE9378
:10031C00EE9306C0AA81BB81EFEFFFEFED93FC9348
:10032C001981088125960895BA93AA9326970E945D
:10033C00590410E0AC85BD85E0E0F0E0ED93FC9352
:10034C00EA89FB893196EA8BFB8B3197E4912E2F4E
:10035C00E03009F415C1E12FE03039F4253211F405
:10036C0011E002C00E94BE030AC1E130A9F425329B
:10037C0019F40E94BE0302C112E040E000E02D32ED
:10038C0011F401E0FCC02B3211F44BE2F8C0203226
:10039C0011F440E2F4C002C0E23039F450E013E052
:1003AC00203311F40068EBC003C0E33009F0E7C060
:1003BC00203310F02A3308F007C0AAE05A9F502DC2
:1003CC00E22FE0535E0FDBC0E22FE33649F40E94CC
:1003DC00C503E889F989A481AA930E94CB03CEC0F6
:1003EC00E33741F40E94C5030E94D1030E9490039D
:1003FC001E2F0AC0E03761F40E94C5030E94D1038E
:10040C000E949C031E2F086002600F7730E034C0FE
:10041C00E43611F0E93611F4046002C0E53731F42A
:10042C00E4E5F0E0EE83FF8315E00CC0E83511F451
:10043C00086003C0E83709F0A1C0EEE5F0E0EE83F8
:10044C00FF8314E002FF14C00E94C5030E94DB036B
:10045C00AB85AA233AF4EA85FB850E94FF03EA8761
:10046C00FB874DE2403011F01F5F01C00B7F04C0D1
:10047C000E94C5030E94DB0300FD11C0151778F420
:10048C0007FF08C002FF04C00B7F242F115001C0CE
:10049C0020E301C020E20E94BE035150EFCF312F68
:1004AC0001FF17C03030A1F003FF06C0EE81FF81C1
:1004BC002591EE83FF8305C0AE81BF812D91AE8364
:1004CC00BF830E94BE03503009F051503150EACF27
:1004DC004BC020E3EE81FF810E942704E887F98757
:1004EC00EE81FF813296EE83FF83E885F985AA853C
:1004FC00BB85AE17BF0750F02F5FA885B985EA857D
:10050C00FB85EA1BFB0BEA87FB87EFCF2A3328F02E
:10051C0003FF02C0295F01C0295D04FD1AC021330D
:10052C0020F4A885B985119709F409C0531710F068
:10053C0000FF01C013C020E207FF0BC020E30061E5
:10054C0002FF07C00B7F4A930E94CB03503009F087
:10055C0051500E94BE03503009F051503150A885C3
:10056C00B985129708F0B5CF00FF08C0503031F0B4
:10057C005150E0E2EA930E94CB03F8CF10E0E0CEBA
:10058C00AC85BD850E9423040E9460046496089586
:10059C00FF92F82E26970E945B040E94E30330978B
:1005AC0019F4EFEFFFEF23C0DE0116960E94FB0358
:1005BC008D010E94E303EE83FF83E0E0E887E98787
:1005CC00DE011A960E94FB030E942304FA93EA931D
:1005DC001A930A93EAE5F1E0FA93EA93DE011A968C
:1005EC00A3DE9F01AE81BF81E0E0EC93F9010E9494
:1005FC0062042A96FF900895AA93E8B3EF70AE2F89
:10060C00E881E07FEA2BE8BB82E08A95F1F7C29A99
:10061C0082E08A95F1F7C29882E08A95F1F778C06A
:10062C00AA93A881E9DFE881E295E883A881E4DF59
:10063C0081E18A95F1F76CC0AA93E881F0E0E05A69
:10064C00FD4FE081A981AE0FEBDF598048802296E7
:10065C000895A2E0E5DF0E94A903ACE0E1DFA1E090
:10066C00DFDF0E94A903E0E04E2E5E2E0895AA93D0
:10067C00A881AA3011F0571448F0E0E0EA934394B3
:10068C00A42DDADFA881AA3009F442C05394C09A91
:10069C00A881C6DFC0983CC0BA93AA931A93A981CB
:1006AC00BA81ED91A983BA831E2FE03019F0A12FE6
:1006BC00DEDFF5CF188123960895AA93E7B3E06F98
:1006CC00E7BBBA9AB89AB99AC298C098C198788080
:1006DC00E881E058E0936202E881E054E093630221
:1006EC00A4E1B0E00E94F1030E94EA030E94EA0335
:1006FC000E94EA03A0E280DF81E28A95F1F7A8E28A
:10070C008FDFA4E08DDFA5E88BDFA6E089DFA1DF1A
:10071C0021960895BA93AA93A991B991EE27FF2730
:10072C006D91662311F03196FBCF0895BA93AA937D
:10073C00AA27BB27E991F9910590002011F0119699
:10074C00FBCFFD010895A3E0B0E00C94F1030E94EF
:10075C002203E881F981FA93EA9308950E942B040D
:10076C0084E00E94CE022896A881B9810C94520391
:10077C002A93AD85BE85EF85F88909950895E8899A
:10078C00F9893497E88BF98B0895AD85BE85EF8593
:10079C00F88909950895A889B98914960E942304AB
:1007AC00EE83FF83AE81BF810895A889B989149621
:1007BC000E942304EA87FB870895DE011C960E94A1
:1007CC00FB030E9423040895A0E30E94020381E22C
:1007DC008A95F1F70895109639F0A8958AEF90E074
:1007EC000197F1F71197C9F708950024AF0DB01DCB
:1007FC000895F195E195F04008956F2F660F660B03
:10080C00762F0895FA9FF02DEB9FF00DEA9FE02DC7
:10081C00F10D089504D0F6DF0EF4EBDF0895E894A3
:10082C00F7FF02C0E6DF6894B7FF06C0A095B0954D
:10083C00119600F8039400FA0895ED91FC9111972C
:10084C0008950590F491E02D08957A936A93FA93A4
:10085C00EA930895119602D0FE2F1197E199FECFDD
:10086C00FF93FFB7F894AEBBBFBBE09AEDB3FFBFED
:10087C00FF91089507D01196EF93EF2F03D0EF91CE
:10088C0011970895E19B02C0A895FCCF9FB7F894EF
:10089C00AEBBBFBBE09A8DB3E81719F0EDBBE29A83
:1008AC00E19A9FBF08955A934A933A932A931A93C5
:1008BC000A9308955D814C813B812A8119810881BD
:1008CC000895AC0FBD1F05900D928A95E1F7089520
:00000001FF
