:040000000C94580004
:100004000C9400000C9400000C9400000C9400006C
:100014000C9400000C9400000C9400000C9400005C
:100024000C9400000C9400000C9400000C9400004C
:100034000C9400000C9400000C9400000C9400003C
:100044000C9400000C9400000C9400000C9400002C
:100054001027E80364000A000100001000011000EA
:10006400010014244481122242821121418418285F
:100074004888010203F4040506F3070809F20A009C
:100084000CF16B6579203A3A20256400656570723D
:100094006F6D203A3A2564006B6579203A3A202541
:1000A400630080C002007002A6000000F894EE27EE
:1000B400ECBBF1E0FBBFEBBFE5BF8DE0A2E0BB27EB
:1000C400ED938A95E9F780E098E0A0E6ED93019737
:1000D400E9F7E8EAF0E085919591009761F0A59140
:1000E400B59105901590BF01F00105900D9201970F
:1000F400E1F7FB01F0CFEFE5EDBFE8E0EEBFC0E6CE
:10010400D2E00C948500A09780E2A0E0B0E0E6E69F
:10011400F0E00E94FB03E0E0EABBEBBBE7BBE8BB1B
:10012400E4BBE5BBE1BBE2BBE3BFE2BFECBFEFBDB9
:10013400EEBDEDBDECBDE7BDE6BDEBBDEABDE9BD81
:10014400E8BDE2BDE5BDE4BDE3BDE9BFE5BFE4BF95
:10015400EAB9E0E8E8B9E0E0E0BFE6B9EDB9E6BF46
:10016400A0E10E9413032297EFE0E1BBE2BB0E94EF
:10017400590320B3E0EFE1BBE2BB0E945903E0B3B3
:100184002E23AFE0B0E00E94A50350E02030E9F157
:1001940000E010E00031E0E01E077CF4DE0112967E
:1001A400A00FB11FEC91E21729F4DE015296A00FC3
:1001B400B11F5C910F5F1F4FEDCFE52FA0E0B0E0C2
:1001C400F0E00E94D4030E94DF02E0E0EA93A0E0A2
:1001D4000E945D03E6E8F0E0FA93EA93E52FFF2737
:1001E400662777270E946403E0E0EA93A1E00E9477
:1001F4005D03E0E9F0E0FA93EA93A0E0B0E00E9446
:10020400C403662777270E9464032296ACCFFFCFEE
:10021400BA93AA931A930A93AA81BB8112960E9455
:10022400B703309759F1AA81BB8114960E94B70392
:100234008F01309761F00230E0E01E0798F0F8017A
:1002440031978F01AA81BB811496ED93FC93AA8107
:10025400BB811296ED91FD913196FE93EE93319709
:10026400AC81A083AA81BB810E94B703FF232AF03B
:10027400ED91FD913196FE93EE9306C0AA81BB8168
:10028400EFEFFFEFED93FC93198108812596089514
:10029400BA93AA9326970E94ED0310E0AC85BD851E
:1002A400E0E0F0E0ED93FC93EA89FB893196EA8B78
:1002B400FB8B3197E4912E2FE03009F415C1E12F27
:1002C400E03039F4253211F411E002C00E947203C7
:1002D4000AC1E130A9F4253219F40E94720302C163
:1002E40012E040E000E02D3211F401E0FCC02B32BA
:1002F40011F44BE2F8C0203211F440E2F4C002C021
:10030400E23039F450E013E0203311F40068EBC01C
:1003140003C0E33009F0E7C0203310F02A3308F0BB
:1003240007C0AAE05A9F502DE22FE0535E0FDBC0B6
:10033400E22FE33649F40E947903E889F989A4811C
:10034400AA930E947F03CEC0E33741F40E9479034D
:100354000E9485030E9440031E2F0AC0E03761F407
:100364000E9479030E9485030E944C031E2F08609B
:1003740002600F7730E034C0E43611F0E93611F44E
:10038400046002C0E53731F4E4E5F0E0EE83FF8376
:1003940015E00CC0E83511F4086003C0E83709F033
:1003A400A1C0EEE5F0E0EE83FF8314E002FF14C089
:1003B4000E9479030E948F03AB85AA233AF4EA854D
:1003C400FB850E94B303EA87FB874DE2403011F0BE
:1003D4001F5F01C00B7F04C00E9479030E948F033A
:1003E40000FD11C0151778F407FF08C002FF04C010
:1003F4000B7F242F115001C020E301C020E20E9492
:1004040072035150EFCF312F01FF17C03030A1F0EC
:1004140003FF06C0EE81FF812591EE83FF8305C0B3
:10042400AE81BF812D91AE83BF830E947203503091
:1004340009F051503150EACF4BC020E3EE81FF81E7
:100444000E94BB03E887F987EE81FF813296EE8331
:10045400FF83E885F985AA85BB85AE17BF0750F0F1
:100464002F5FA885B985EA85FB85EA1BFB0BEA8724
:10047400FB87EFCF2A3328F003FF02C0295F01C0B6
:10048400295D04FD1AC0213320F4A885B98511978C
:1004940009F409C0531710F000FF01C013C020E293
:1004A40007FF0BC020E3006102FF07C00B7F4A93E4
:1004B4000E947F03503009F051500E947203503063
:1004C40009F051503150A885B985129708F0B5CF7D
:1004D40000FF08C0503031F05150E0E2EA930E942E
:1004E4007F03F8CF10E0E0CEAC85BD850E94B70352
:1004F4000E94F40364960895FF92F82E26970E94B2
:10050400EF030E949703309719F4EFEFFFEF23C036
:10051400DE0116960E94AF038D010E949703EE83BD
:10052400FF83E0E0E887E987DE011A960E94AF03C3
:100534000E94B703FA93EA931A930A93EAE0F1E06C
:10054400FA93EA93DE011A96A3DE9F01AE81BF817E
:10055400E0E0EC93F9010E94F6032A96FF900895D7
:10056400AA93E8B3EF70AE2FE881E07FEA2BE8BBF3
:1005740082E08A95F1F7C29A82E08A95F1F7C298EF
:1005840082E08A95F1F778C0AA93A881E9DFE8812F
:10059400E295E883A881E4DF81E18A95F1F76CC0F4
:1005A400AA93E881F0E0E059FD4FE081A981AE0F04
:1005B400EBDF5980488022960895A2E0E5DF0E948F
:1005C4005903ACE0E1DFA1E0DFDF0E945903E0E082
:1005D4004E2E5E2E0895AA93A881AA3011F05714C6
:1005E40048F0E0E0EA934394A42DDADFA881AA302E
:1005F40009F442C05394C09AA881C6DFC0983CC095
:10060400BA93AA931A93A981BA81ED91A983BA8363
:100614001E2FE03019F0A12FDEDFF5CF18812396CD
:100624000895AA93E7B3E06FE7BBBA9AB89AB99A68
:10063400C298C098C1987880E881E058E09372022B
:10064400E881E054E0937302A4E1B0E00E94A503C2
:100654000E949E030E949E030E949E03A0E280DFEC
:1006640081E28A95F1F7A8E28FDFA4E08DDFA5E8A7
:100674008BDFA6E089DFA1DF21960895BA93AA93C0
:10068400A991B991EE27FF276D91662311F0319658
:10069400FBCF0895BA93AA93AA27BB27E991F991AE
:1006A4000590002011F01196FBCFFD010895A3E001
:1006B400B0E00C94A5030E94D202E0E6F2E0FA93C3
:1006C400EA9308950E94BF0384E00E947E02289664
:1006D400A0E6B2E00E940203A4EFB1E00C94A503EB
:1006E4002A93AD85BE85EF85F88909950895E88933
:1006F400F9893497E88BF98B0895AD85BE85EF852C
:10070400F88909950895A889B98914960E94B703B0
:10071400EE83FF83AE81BF810895A889B9891496B9
:100724000E94B703EA87FB870895DE011C960E94A6
:10073400AF030E94B7030895A0E30E94B20281E2CE
:100744008A95F1F70895109639F0A8958AEF90E00C
:100754000197F1F71197C9F708950024AF0DB01D63
:100764000895F195E195F0400895ED91FC9111976C
:1007740008950590F491E02D08957A936A93FA937D
:10078400EA930895119602D0FE2F1197E199FECFB6
:10079400FF93FFB7F894AEBBBFBBE09AEDB3FFBFC6
:1007A400FF91089507D01196EF93EF2F03D0EF91A7
:1007B40011970895E19B02C0A895FCCF9FB7F894C8
:1007C400AEBBBFBBE09A8DB3E81719F0EDBBE29A5C
:1007D400E19A9FBF08955A934A933A932A931A939E
:1007E4000A9308955D814C813B812A811981088196
:1007F4000895AC0FBD1F05900D928A95E1F70895F9
:00000001FF
