:020000000C945E
:100002002A000C9400000C9400000C9400000C9444
:1000120000000C9400000C9400000C9400000C945E
:1000220000000C9400000C9400000C9400000C944E
:1000320000000C9400000C9400000C9400000C943E
:1000420000000C9400000C9400000C9400000C942E
:100052000000F894EE27ECBBF1E0FBBFEBBFE5BF7D
:100062008DE0A2E0BB27ED938A95E9F780E098E066
:10007200A0E6ED930197E9F7EFE5EDBFE8E0EEBF0B
:10008200C0E6D2E00C944500E0E0EABBEBBBEFEF48
:10009200E7BBE0E0E8BBE4BBE5BBE1BBE2BBE3BF3F
:1000A200E2BFECBFEFBDEEBDEDBDECBDE7BDE6BD11
:1000B200EBBDEABDE9BDE8BDE2BDE5BDE4BDE3BD22
:1000C200E9BFE5BFE4BFEAB9E0E8E8B9E0E0E0BFD4
:1000D200E6B9EDB9E6BFE1E1E6BB35D03CD040D0B0
:1000E2003AD03ED043D037D03BD040D045D033D0A9
:1000F20037D03CD041D046D02ED032D037D03CD0B1
:1001020041D046D028D02CD031D036D03BD040D0B0
:10011200ACE2B1E00E94CF00C6981DD021D026D01B
:100122002BD030D035D0ACE2B1E00E94CF00C698DF
:10013200ACE2B1E00E94CF00C798A8EEB3E00E9403
:10014200CF00C9CFFFCFE6B3E8BBACE2B1E00E947B
:10015200CF00C0980895A8EEB3E00E94CF00F3CF7D
:10016200ACE2B1E00E94CF00C1980895ACE2B1E0E8
:100172000E94CF00C2980895ACE2B1E00E94CF0085
:10018200C3980895ACE2B1E00E94CF00C4980895EC
:10019200ACE2B1E00E94CF00C5980895109639F004
:1001A200A8958AEF90E00197F1F71197C9F70895A2
:00000001FF
