:0E0000000C9443000C9400000C9400000C942F
:10000E0000000C9400000C9400000C9400000C9462
:10001E0000000C9400000C9400000C9400000C9452
:10002E0000000C9400000C9400000C9400000C9442
:10003E0000000C9400000C9400000C9400000C9432
:10004E0000000C940000415652004D6963726F63BC
:10005E006F6E74726F6C6C657273000080C01100ED
:10006E0060025800110071025800110082025800FF
:10007E00020093026A000000F894EE27ECBBF1E058
:10008E00FBBFEBBFE5BF8DE0A2E0BB27ED938A95EA
:10009E00E9F780E098E0A0E6ED930197E9F7ECE64A
:1000AE00F0E085919591009761F0A591B59105903D
:1000BE001590BF01F00105900D920197E1F7FB013C
:1000CE00F0CFEFE5EDBFE8E0EEBFC0E6D2E00C9476
:1000DE007000E0E0EABBEBBBE7BBE8BBE4BBE5BB13
:1000EE00E1BBE2BBE3BFE2BFECBFEFBDEEBDEDBDDA
:1000FE00ECBDE7BDE6BDEBBDEABDE9BDE8BDE2BDC9
:10010E00E5BDE4BDE3BDE9BFE5BFE4BFEAB9E0E8A4
:10011E00E8B9E0E0E0BFE6B9EDB9E6BFA0E10E94C4
:10012E0076010E941601E0E0EA930E94A301A0E688
:10013E00B2E00E94430101E010E00E30E0E01E0745
:10014E0064F40E9416010A930E94A301A1E7B2E093
:10015E000E94AF010F5F1F4FF0CF0DE010E0112393
:10016E0062F00E9416010A930E94A301A2E8B2E077
:10017E000E94AF0101501040F2CFD3CFFFCFFFE06E
:10018E00FA95F1F70895A7B3AF70A7BBC19AC098BF
:10019E00F6DFC29AF4DFA6B3C298F1DFC29AEFDFA0
:1001AE00C298A7FDF5CF0895A07FAB2BA8BBC29A2E
:1001BE000E94C600C2980E94C6000895AA93C198D4
:1001CE00A7B3A76FA7BBB8B3BF70A881EDDFA88197
:1001DE00A295EADFC19A0C94A101C29A0E94C600B0
:1001EE00E6B3C2980E94C600E07F08950E94C60042
:1001FE00F4DFAE2FF2DFC198E295EA2B0895AA93B1
:10020E000E94CA00E881F0E0ED56FD4FE081A98121
:10021E00AE0F0E94E50059804880229608950E94F4
:10022E00CA00A2E00E94E5000E94CA00ACE00E9453
:10023E00E5000E94CA00A1E00E94E500E0E04E2E1B
:10024E005E2E0895AA93EF93FF93A8816894AA3027
:10025E0019F0E894571430F04394E0E0EA93A42D9B
:10026E00CEDF36F053948FDFC09AA8810E94E5004E
:10027E00FF91EF910C94A101BA93AA931A93A981BD
:10028E00BA81ED91A983BA831E2FE03019F0A12F08
:10029E00D9DFF5CF10C0BA93AA931A93E981FA81E8
:1002AE003196E983FA833197E4911E2FE03019F0ED
:1002BE00A12FC8DFF3CF188123960895AA27BB2755
:1002CE001197F1F70895AA93C198A7B3A76FA7BB8B
:1002DE00B8B3BF70A8810E94DB00C19A2BC0AA934D
:1002EE00C298C0987880E881E058E0939502E88142
:1002FE00E054E093960232D031D030D0DFDFA0E26E
:10030E00E2DFDCDFA8E22ED0A4E02CD0A5E82AD0D4
:10031E00A7B3AF70A7BBC19A0E94FD00E53011F0E4
:10032E00E0E008C00E94CA00A6E00E94E5000E941C
:10033E001601E1E021960895A0E00E940601A4E5D1
:10034E00B0E00E945201E0E0EA93A1E00C940601B5
:10035E000E944301A4EFB1E00C94BD010E9465011F
:10036E00A0E3B1CF0E94E5000C946501109639F020
:10037E00A8958AEF90E00197F1F71197C9F70895C4
:00000001FF
