:080000000C944B000C9400006D
:100008000C9400000C9400000C9400000C94000068
:100018000C9400000C9400000C9400000C94000058
:100028000C9400000C9400000C9400000C94000048
:100038000C9400000C9400000C9400000C94000038
:100048000C9400000C9400000C9400001027E803A6
:1000580064000A0001000010000110000100543A79
:10006800256400443A2564202C20523A25342E3247
:10007800000080C001002D4E414E00494E46000050
:10008800020060027A00010064027C000000F8941B
:10009800EE27ECBBF1E0FBBFEBBFE5BF8DE0A2E0D4
:1000A800BB27ED938A95E9F780E098E0A0E6ED9309
:1000B8000197E9F7E8E8F0E085919591009761F0FC
:1000C800A591B59105901590BF01F00105900D928D
:1000D8000197E1F7FB01F0CFEFE5EDBFE8E0EEBFF8
:1000E800C0E6D2E00C948700AA93E881E064E7B9FF
:1000F80083E08A95F1F7369A349BFECF349AE4B1BF
:10010800F5B10C94F5046897E0E0EABBEBBBE7BBFC
:10011800E8BBE4BBE5BBE1BBE2BBE3BFE2BFECBFCE
:10012800EFBDEEBDEDBDECBDE7BDE6BDEBBDEABD87
:10013800E9BDE8BDE2BDE5BDE4BDE3BDE9BFE5BF9E
:10014800E4BFEAB9E0E8E8B9E0E4E7B9E4E8E6B929
:10015800E0E0E0BFEDB9E6BFA0E10E94CA040E945A
:100168009804A0E0C1DF8F01E0E0F0E060E070E417
:100178000E94A307A0E0B0E080E091E40E94710231
:10018800D801882799270E94AF070E941005E0E050
:10019800F0E060EA70E40E9408070E949E070E944F
:1001A8001505EC83FD836E837F830E949804FE010E
:1001B8003896FA93EA93E6E6F0E0FA93EA930E9417
:1001C80018050E94A30784E00E9437042896E0E0FF
:1001D800EA93A0E00E948B040E941D05FE01389658
:1001E800FA93EA93EBE6F0E0FA93EA93F8016627CC
:1001F80077270E94A307EC85FD856E857F850E9481
:10020800A30788E00E9437042C960E941D05A7CFFB
:10021800FFCF0E94A8077B816A81F981E88177FB7B
:10022800770F67FD7160972F9E5781F078F09831AE
:1002380090F4AA27BB27882708948795B795A79590
:100248009A95D1F7EA23FB23682305C0E89477271A
:10025800EE27FF2766276F77769508F4606877F9A9
:10026800A991B99189919991EA17FB0768077907CC
:1002780097FB08950E94A8070E9499070E940D0104
:100288000E949E0719F40E94150505C0E6F70E9412
:1002980015050E942505249608950E94A80724970D
:1002A8001A930A930E942C050E94C3072CF0EFEFC3
:1002B800FFEF6FE77FEF73C00E9431050E94A3072D
:1002C800ADB7BEB711971F930F930E94A7050F9163
:1002D8001F910E9436050E942C05E3EFF4E065E3C8
:1002E8007FE30E944D0740F40E943B050E946A0686
:1002F8000E943605015010400E9431050E942505D4
:100308007F936F93FF93EF930E943105A0E0B0E0D5
:1003180080E89FE30E946A06AF91BF918F919F91F9
:100328000E9408070E9436050E943B050E943D0571
:10033800A6E2B2E485E69FE30E941005EEE4F1E14F
:1003480064E570E40E9444050E942C050E94BA06E8
:100358007F936F93FF93EF930E944905ADE4B1E15A
:1003680084ED9FE30E946306AF91BF918F919F91A7
:100378000E9408077F936F93FF93EF93F8010E9401
:100388007D070E943006A8E1B2E781E39FE30E945F
:10039800BA06AF91BF918F919F910E946A06198109
:1003A80008812A9608950E94A80728971A930A9305
:1003B8000E944E05E0E5FCEA6EEA72EC0E944D07E9
:1003C80018F40E94530585C0EA85FB856C857D85F8
:1003D8000E94BF0729F4E0E0F0E060E87FE379C01D
:1003E8000E944E05E8E1F2E761EB72E40E944D07D6
:1003F80009F008F405C0EFEFFFEF6FE77FE769C08A
:100408000E944E05EBE3FAEA68EB7FE30E94BA0626
:10041800EA87FB876C877D870E944E052BDF0E9449
:10042800F9058F010E944E050E947D070E94300643
:100438000E944405DF01CB01E0E0F0E060E07FE3EB
:100448000E9444050E9436050E943B050E943D0516
:10045800ADE6BCE48CE69DE30E94BA06A6EAB3EEDC
:1004680086EE90E40E946A060E942C050E94BA0655
:100478000E9436050E944905A8E2BDE886EA91E493
:100488000E946A06EA83FB836C837D830E943105A0
:10049800AA81BB818C819D810E946A06A3EFB4E08A
:1004A80085EB9FE30E94BA067F936F93FF93EF93C8
:1004B8000E942C050E9449050E946306AF91BF91D6
:1004C8008F919F910E9408070E94A307D8010E945C
:1004D800B805198108812E9608950E94A8072497C7
:1004E8000E9458050E94BF0719F40E94530545C091
:1004F800A885B9858A859B850E94C30794F40E94C4
:1005080018050E94BF0729F4E0E0F0E060E87FE307
:1005180034C0A885B9858A859B850E945D0543DF1F
:100528002CC00E941805DE010E94F9050E948B0765
:100538000E9415050E943006DF01CB010E941805B4
:100548000E94C90719F00E94530517C00E94580558
:100558000E94C405DF01CB010E945D0524DFE88706
:10056800F9876A877B87E881E17019F40E9458054A
:1005780004C00E9458050E94C4052C960895BA9399
:10058800AA931A930A93AA81BB8112960E9487079D
:10059800309759F1AA81BB8114960E9487078F0171
:1005A800309761F00230E0E01E0798F0F8013197CB
:1005B8008F01AA81BB811496ED93FC93AA81BB811C
:1005C8001296ED91FD913196FE93EE933197AC81A1
:1005D800A083AA81BB810E948707FF232AF0ED919F
:1005E800FD913196FE93EE9306C0AA81BB81EFEF91
:1005F800FFEFED93FC931981088125960895BA932E
:10060800AA9326970E94CE0710E0AC85BD85E0E04E
:10061800F0E0ED93FC93EA89FB893196EA8BFB8B3A
:100628003197E4912E2FE03009F415C1E12FE03025
:1006380039F4253211F411E002C00E9464050AC1A0
:10064800E130A9F4253219F40E94640502C112E0D0
:1006580040E000E02D3211F401E0FCC02B3211F42F
:100668004BE2F8C0203211F440E2F4C002C0E2309C
:1006780039F450E013E0203311F40068EBC003C0F4
:10068800E33009F0E7C0203310F02A3308F007C040
:10069800AAE05A9F502DE22FE0535E0FDBC0E22FF5
:1006A800E33649F40E946B05E889F989A481AA9385
:1006B8000E947105CEC0E33741F40E946B050E9489
:1006C80077050E94F7041E2F0AC0E03761F40E94E4
:1006D8006B050E9477050E9403051E2F08600260C3
:1006E8000F7730E034C0E43611F0E93611F40460D5
:1006F80002C0E53731F4E4E5F0E0EE83FF8315E06E
:100708000CC0E83511F4086003C0E83709F0A1C04F
:10071800EEE5F0E0EE83FF8314E002FF14C00E94D0
:100728006B050E948105AB85AA233AF4EA85FB850F
:100738000E947107EA87FB874DE2403011F01F5F86
:1007480001C00B7F04C00E946B050E94810500FD5B
:1007580011C0151778F407FF08C002FF04C00B7F0B
:10076800242F115001C020E301C020E20E9464053B
:100778005150EFCF312F01FF17C03030A1F003FFE8
:1007880006C0EE81FF812591EE83FF8305C0AE810F
:10079800BF812D91AE83BF830E946405503009F05C
:1007A80051503150EACF4BC020E3EE81FF810E94C7
:1007B8009007E887F987EE81FF813296EE83FF8301
:1007C800E885F985AA85BB85AE17BF0750F02F5F6E
:1007D800A885B985EA85FB85EA1BFB0BEA87FB87B9
:1007E800EFCF2A3328F003FF02C0295F01C0295D3B
:1007F80004FD1AC0213320F4A885B985119709F49E
:1008080009C0531710F000FF01C013C020E207FF12
:100818000BC020E3006102FF07C00B7F4A930E94D0
:100828007105503009F051500E946405503009F0AC
:1008380051503150A885B985129708F0B5CF00FFFF
:1008480008C0503031F05150E0E2EA930E9471053F
:10085800F8CF10E0E0CEAC85BD850E9487070E94E6
:10086800D50764960895FF92F82E26970E94D00720
:100878000E948905309719F4EFEFFFEF23C0DE01DE
:1008880016960E946D078D010E948905EE83FF83ED
:10089800E0E0E887E987DE011A960E946D070E946A
:1008A8008707FA93EA931A930A93E3ECF2E0FA9330
:1008B800EA93DE011A96A3DE9F01AE81BF81E0E0D4
:1008C800EC93F9010E94D7072A96FF900895AA93FE
:1008D800E8B3EF70AE2FE881E07FEA2BE8BB82E057
:1008E8008A95F1F7C29A82E08A95F1F7C29882E078
:1008F8008A95F1F776C0AA93A881E9DFE881E295A5
:10090800E883A881E4DF81E18A95F1F76AC0AA93B8
:10091800E881F0E0E05AFD4FE081A981AE0FEBDFFE
:100928005980488022960895A2E00E949005ACE084
:10093800E2DFA1E00E949005E0E04E2E5E2E0895D1
:10094800AA93A881AA3011F0571448F0E0E0EA937E
:100958004394A42DDCDFA881AA3009F442C0539443
:10096800C09AA881C8DFC0983CC0BA93AA931A93CA
:10097800A981BA81ED91A983BA831E2FE03019F0BD
:10098800A12FDEDFF5CF188123960895AA93E7B348
:10099800E06FE7BBBA9AB89AB99AC298C098C1985A
:1009A8007880E881E058E0936202E881E054E093BF
:1009B8006302A4E1B0E00E949D050E9496050E9492
:1009C80096050E949605A0E282DF81E28A95F1F7FA
:1009D800A8E291DFA4E08FDFA5E88DDFA6E08BDF3A
:1009E800A3DF21960895BA93AA93A991B991EE2706
:1009F800FF276D91662311F03196FBCF0895BA93C6
:100A0800AA93AA27BB27E991F9910590002011F034
:100A18001196FBCFFD0108950E94BA06DF01CB01B4
:100A280008950E9494070895EC81FD816E817F816D
:100A38000895DE0118960E94B904A4EFB1E00C9461
:100A48009D05A0E0B0E080E89FE30E94630608955A
:100A5800AE81BF81888599850895EE81FF8168857B
:100A680079850895EE83FF83688779870895F5DF90
:100A7800EFCF0E94BA06EA83FB836C837D830895D7
:100A88000E94B2070E9463060895EA81FB816C8187
:100A98007D810895AA85BB858C859D850895E0E0B4
:100AA800F0E060E070E00895E885F9856A857B8567
:100AB80008950E945101AC81BD818E819F81ACCF88
:100AC8002A93AD85BE85EF85F88909950895E8894B
:100AD800F9893497E88BF98B0895AD85BE85EF8544
:100AE800F88909950895A889B98914960E948707F5
:100AF800EE83FF83AE81BF810895A889B9891496D2
:100B08000E948707EA87FB870895DE011C960E94EA
:100B18006D070E94870708950E947F04A3E0B0E054
:100B28000C949D05A0E30E946B0481E28A95F1F77D
:100B38000895109639F0A8958AEF90E00197F1F79B
:100B48001197C9F70895E991F9916991799177FB1E
:100B5800660F771F88277E57880B7D938C937EE7D7
:100B6800769567956EF00895E991F9916991799173
:100B780077FB660F771F7A0F769567950EF00895C5
:100B880030976040704009F070580895552342F43A
:100B9800503811F4E0FF04C03196691F791F6BF0DB
:100BA80050E8572711F45F93CFC05F3F31F0660FCD
:100BB800000C57956795752F08955F9300200AF0EC
:100BC800CFC0C8C050E8192E1522880F991F952745
:100BD800550F879550E8072E0522660F771F752752
:100BE800550F67950895689401C0E8945F93F2DF04
:100BF800703818F07F3F08F4A7C056E1571BAAF4D5
:100C0800519558300EF4593030F0EFEFFFEF6FEF99
:100C18007FE777F91AC077275523B9F0EE0FFF1F42
:100C2800661F771F5A95D1F710C07727583028F0DC
:100C3800EF2FF62F672F5850F9CF552331F07695BF
:100C48006795F795E7955A95D1F700200AF449D1A9
:100C58005F910895689401C0E894309760407040AF
:100C6800B1F0002426F0772312F400943AD1172E1D
:100C78007EE1112032F07A95EE0FFF1F661F111CDE
:100C8800F9CFEF2FF62F612D5F938ADF5F910895DB
:100C98004F93AF01FD01DA01AB01BC01CA01402D40
:100CA800012C142E4F910895EA0FFB1F681F089519
:100CB800E095F0956095EF5FFF4F6F4F08955F9354
:100CC80081DF903871F150E8152604C05F937ADF10
:100CD800903839F1703821F1572F591B2BF112F444
:100CE800D7DFFACF583118F0AA27BB278827583002
:100CF80028F0AB2FB82F88275850F9CF552329F063
:100D08008695B795A7955A95D9F7502D512572F024
:100D1800CBDF38F46795F795E795739513F420C002
:100D2800B7DF3EDF5F910895D8F7FBCFEA1BFB0BD7
:100D3800680B51F010F40094BBDF662392F3EE0FBA
:100D4800FF1F661F7A95CBF7EE27FF2766277727C1
:100D58005F910895EFEFFFEF6FE77FEF5F910895E1
:100D6800EFEFFFEF6FE77FE75F9108955F932ADF6B
:100D7800703851F3903841F301240894791F23F413
:100D88001CF300203AF3ECCF0F921F932F933F935D
:100D98004F93112722279927689FA0018F9F302DF5
:100DA800410D591F6B9F300D411D591F8E9F27D034
:100DB800BF9F25D06A9F23D0BE9F1DD0AF9F1BD059
:100DC800AE9F110D291F391F491F591FE32FF42FFB
:100DD800652F522F4F913F912F911F910F906623AE
:100DE8002AF0550FEE1FFF1F661F02C073954BF2C6
:100DF800CDDE5F910895100D211D391F02C0200D11
:100E0800311D491F591F08955F93DCDE703821F4A6
:100E180011200AF49FCFA4CF903809F495CF01246C
:100E28000894970B1BF4D4F30020F3CF792F1F936A
:100E38002F933F934F9311241127222733274427B9
:100E4800552790E2AE17BF078607410730F0AE1B63
:100E5800BF0B860B410B089401C08894551F221FB5
:100E6800331F111CAA1FBB1F881F441F9A9551F7D7
:100E7800F901612D4F913F912F911F91662332F017
:100E8800550FEE1FFF1F661F7A9543F27FDE5F91B5
:100E9800089599239AF0772342F0971748F029F498
:100EA800AE17BF07860720F031F09894889408950C
:100EB8009894089408951894889408957723C2F70D
:100EC800971798F3A9F7EA17FB07680788F399F3C8
:100ED800ECCF0024AF0DB01D0895F195E195F040D9
:100EE8000895F09560957095E195FF4F6F4F7F4F8E
:100EF80008956F2F660F660B762F08958B2F880F36
:100F0800880B982F0895ED91FC9111970895ED9312
:100F1800FD936D937C9308950590F491E02D0895C9
:100F2800E881F9816A817B810895A881B9818A81E4
:100F38009B810895E883F9836A837B8308957A9374
:100F48006A93FA93EA9308959A938A93BA93AA9321
:100F58000895689401C0E89401D07FDE182E862F8A
:100F6800612D192E972F712D1B2EBF2FF12D1A2EA3
:100F7800AE2FE12D08953097604070400895002409
:100F88000A160B06080609060895EA17FB076807FC
:100F9800790708955A934A933A932A931A930A938E
:100FA80008955D814C813B812A81198108810895CA
:00000001FF
