:040000000C943A0022
:100004000C9400000C9400000C9400000C9400006C
:100014000C9400000C9400000C9400000C9400005C
:100024000C9400000C9400000C9400000C9400004C
:100034000C9400000C9400000C9400000C9400003C
:100044000C9400000C9400000C9400000C9400002C
:10005400415652004D6963726F636F6E74726F6CB8
:100064006C657273000080C0020060026A000000C8
:10007400F894EE27ECBBF1E0FBBFEBBFE5BF8DE0EE
:10008400A2E0BB27ED938A95E9F780E098E0A0E62B
:10009400ED930197E9F7ECE6F0E0859195910097EF
:1000A40061F0A591B59105901590BF01F0010590FF
:1000B4000D920197E1F7FB01F0CFEFE5EDBFE8E02A
:1000C400EEBFC0E6D2E00C946700E0E0EABBEBBB15
:1000D400EFEFE7BBE0E0E8BBE4BBE5BBE1BBE2BBC1
:1000E400E3BFE2BFECBFEFBDEEBDEDBDECBDE7BDD0
:1000F400E6BDEBBDEABDE9BDE8BDE2BDE5BDE4BDDD
:10010400E3BDE9BFE5BFE4BFEAB9E0E8E8B9E0E090
:10011400E0BFE6B9EDB9E6BFA0E10E944C010E9440
:10012400FB000E947901A0E00E94EB00A4E5B0E08E
:100134000E9428010E947901A1E00E94EB00A8E539
:10014400B0E00E942801A0E7B7E10E948801E7CF50
:10015400FFCFFFE0FA95F1F70895A7B3AF70A7BBFF
:10016400C19AC098F6DFC29AF4DFA6B3C298F1DF51
:10017400C29AEFDFC298A7FDF5CF0895A07FAB2BFD
:10018400A8BBC29A0E94AB00C2980E94AB0008951B
:10019400AA93C198A7B3A76FA7BBB8B3BF70A88130
:1001A400EDDFA881A295EADFC19A0C947701C29A87
:1001B4000E94AB00E6B3C2980E94AB00E07F0895B2
:1001C4000E94AB00F4DFAE2FF2DFC198E295EA2B78
:1001D4000895AA930E94AF00E881F0E0E05AFD4F31
:1001E400E081A981AE0F0E94CA00598048802296FE
:1001F40008950E94AF00A2E00E94CA000E94AF00CE
:10020400ACE00E94CA000E94AF00A1E00E94CA00B4
:10021400E0E04E2E5E2E0895AA93EF93FF93A881FB
:100224006894AA3019F0E894571430F04394E0E04D
:10023400EA93A42DCEDF36F053948FDFC09AA881C1
:100244000E94CA00FF91EF910C947701BA93AA938C
:100254001A93E981FA813196E983FA833197E4911B
:100264001E2FE03019F0A12FD7DFF3CF188123968A
:100274000895AA27BB271197F1F70895AA93C19867
:10028400A7B3A76FA7BBB8B3BF70A8810E94C00073
:10029400C19A2BC0AA93C298C0987880E881E0588C
:1002A400E0936202E881E054E093630227D026D011
:1002B40025D0DFDFA0E2E2DFDCDFA8E223D0A4E088
:1002C40021D0A5E81FD0A7B3AF70A7BBC19A0E94E5
:1002D400E200E53011F0E0E008C00E94AF00A6E0C3
:1002E4000E94CA000E94FB00E1E021960895A0ED5F
:1002F400B7E00E948801E0E0EA9308950E943B0180
:10030400A0E3BCCF0E94CA000C943B01109639F0C4
:10031400A8958AEF90E00197F1F71197C9F708952E
:00000001FF
