:0E0000000C942A000C9400000C9400000C9448
:10000E0000000C9400000C9400000C9400000C9462
:10001E0000000C9400000C9400000C9400000C9452
:10002E0000000C9400000C9400000C9400000C9442
:10003E0000000C9400000C9400000C9400000C9432
:10004E0000000C940000F894EE27ECBBF1E0FBBF2F
:10005E00EBBFE5BF8DE0A2E0BB27ED938A95E9F7F4
:10006E0080E098E0A0E6ED930197E9F7EFE5EDBFAC
:10007E00E8E0EEBFC0E6D2E00C945400AA93E8810B
:10008E00E064E7B983E08A95F1F7369A349BFECFA8
:10009E00349AE4B1F5B121960895E0E0EABBEBBBEA
:1000AE00E7BBE8BBE4BBE5BBE0E3E1BBE0E0E2BB02
:1000BE00E3BFE2BFECBFE1EAEFBDE4E0EEBDE0E09E
:1000CE00EDBDECBDE7BDE6BDEBBDEABDE9BDE8BDEE
:1000DE00E2BDE5BDE4BDE3BDE9BFE5BFE4BFEAB9FE
:1000EE00E0E8E8B9E0E4E7B9E1E8E6B9E0E0E0BF6E
:1000FE00EDB9E6BFA0E0C2DF8F010ABDFBCFFFCF97
:00000001FF
