:0A0000000C944A000C9477000C9455
:10000A0000000C9400000C9400000C9400000C9466
:10001A0000000C949E000C9400000C9400000C94B8
:10002A0000000C9400000C9400000C9400000C9446
:10003A0000000C9400000C9400000C9400000C9436
:10004A0000000C9400000C9400001027E8036400E0
:10005A000A00010000100001100001000000000069
:10006A00010054696D6572302056616C75653A20DD
:10007A002564000080C004000400660001006002DC
:10008A006A00020072027E000000F894EE27ECBBC0
:10009A00F1E0FBBFEBBFE5BF8DE0A2E0BB27ED932C
:1000AA008A95E9F780E098E0A0E6ED930197E9F7F1
:1000BA00E0E8F0E085919591009761F0A591B591FE
:1000CA0005901590BF01F00105900D920197E1F797
:1000DA00FB01F0CFEFE5EDBFE8E0EEBFC0E6D2E00E
:1000EA000C94BE00AA93BA93EA93FA93EFB7EA93F1
:1000FA00A0916002B0916102E1E0F0E0EA27FB27FB
:10010A00E0936002F0936102F20131962F01E2E07E
:10011A00F0E04E165F0634F0E1E0F0E0E0936002B2
:10012A00F0936102E991EFBFF991E991B991A9912F
:10013A001895AA93BA93EA93EFB7EA93A09160024B
:10014A00B0916102119751F4A0E0C299A1E0E1E0F7
:10015A00EA2711F4C29801C0C29A05C0C29B02C024
:10016A00C29801C0C29AE991EFBFE991B991A991E8
:10017A001895E0E0EABBEBBBE4E0E7BBE0E0E8BBF4
:10018A00E4BBE5BBE1BBE2BBE3BFE2BFECBFEFBD53
:10019A00E9E0EEBDE1E0EDBDE3EFECBDE0E0E7BD97
:1001AA00E6BDE1E0EBBDE3EFEABDE0E0E9BDE8BDB5
:1001BA00E2BDE5BDE4BDE3BDE0E1E9BFEBB7E06464
:1001CA00EBBFE1E0E5BFE0E0E4BFE0E4EABFE0E086
:1001DA00EAB9E0E8E8B9E0E0E0BFE6B9EDB9E6BFC0
:1001EA007894A0E10E9462030E941303E2E6F2E01F
:1001FA00FA93EA93ECE6F0E0FA93EA93F2010E94AA
:10020A00F5030E94020484E00E948F022896E0E02F
:10021A00EA93A0E00E940303A2E6B2E00E94400330
:10022A00A4EFB1E00E94E303DFCFFFCFBA93AA9312
:10023A001A930A93AA81BB8112960E94FA033097F5
:10024A0059F1AA81BB8114960E94FA038F01309753
:10025A0061F00230E0E01E0798F0F80131978F0153
:10026A00AA81BB811496ED93FC93AA81BB81129655
:10027A00ED91FD913196FE93EE933197AC81A08377
:10028A00AA81BB810E94FA03FF232AF0ED91FD9116
:10029A003196FE93EE9306C0AA81BB81EFEFFFEF82
:1002AA00ED93FC931981088125960895BA93AA9330
:1002BA0026970E94070410E0AC85BD85E0E0F0E0D7
:1002CA00ED93FC93EA89FB893196EA8BFB8B319794
:1002DA00E4912E2FE03009F415C1E12FE03039F412
:1002EA00253211F411E002C00E94AE030AC1E130C6
:1002FA00A9F4253219F40E94AE0302C112E040E0CB
:10030A0000E02D3211F401E0FCC02B3211F44BE273
:10031A00F8C0203211F440E2F4C002C0E23039F4ED
:10032A0050E013E0203311F40068EBC003C0E3305F
:10033A0009F0E7C0203310F02A3308F007C0AAE01A
:10034A005A9F502DE22FE0535E0FDBC0E22FE336B7
:10035A0049F40E94B503E889F989A481AA930E9405
:10036A00BB03CEC0E33741F40E94B5030E94C10328
:10037A000E9495031E2F0AC0E03761F40E94B5035C
:10038A000E94C1030E94A1031E2F086002600F771A
:10039A0030E034C0E43611F0E93611F4046002C0EA
:1003AA00E53731F4E4E5F0E0EE83FF8315E00CC0B5
:1003BA00E83511F4086003C0E83709F0A1C0EEE59A
:1003CA00F0E0EE83FF8314E002FF14C00E94B5033D
:1003DA000E94CB03AB85AA233AF4EA85FB850E94E7
:1003EA00F103EA87FB874DE2403011F01F5F01C03D
:1003FA000B7F04C00E94B5030E94CB0300FD11C00D
:10040A00151778F407FF08C002FF04C00B7F242FDA
:10041A00115001C020E301C020E20E94AE035150F6
:10042A00EFCF312F01FF17C03030A1F003FF06C014
:10043A00EE81FF812591EE83FF8305C0AE81BF81E6
:10044A002D91AE83BF830E94AE03503009F0515004
:10045A003150EACF4BC020E3EE81FF810E94FE03B8
:10046A00E887F987EE81FF813296EE83FF83E8857C
:10047A00F985AA85BB85AE17BF0750F02F5FA885FF
:10048A00B985EA85FB85EA1BFB0BEA87FB87EFCF79
:10049A002A3328F003FF02C0295F01C0295D04FD49
:1004AA001AC0213320F4A885B985119709F409C027
:1004BA00531710F000FF01C013C020E207FF0BC062
:1004CA0020E3006102FF07C00B7F4A930E94BB032F
:1004DA00503009F051500E94AE03503009F051508B
:1004EA003150A885B985129708F0B5CF00FF08C02A
:1004FA00503031F05150E0E2EA930E94BB03F8CF4A
:10050A0010E0E0CEAC85BD850E94FA030E940E047D
:10051A0064960895FF92F82E26970E9409040E9475
:10052A00D303309719F4EFEFFFEF23C0DE011696DD
:10053A000E94ED038D010E94D303EE83FF83E0E066
:10054A00E887E987DE011A960E94ED030E94FA0302
:10055A00FA93EA931A930A93EBE1F1E0FA93EA9396
:10056A00DE011A96A3DE9F01AE81BF81E0E0EC9323
:10057A00F9010E9410042A96FF900895FFE0FA9567
:10058A00F1F70895AAB3AF70AABBD99AD898F6DF43
:10059A00DA9AF4DFA9B3DA98F1DFDA9AEFDFDA98B8
:1005AA00A7FDF5CF0895A07FAB2BABBBDA9A0E94CB
:1005BA00C302DA980E94C3020895AA93D998AAB3EB
:1005CA00A76FAABBBBB3BF70A881EDDFA881A295B4
:1005DA00EADFD99A0C949303DA9A0E94C302E9B328
:1005EA00DA980E94C302E07F08950E94C302F4DFF2
:1005FA00AE2FF2DFD998E295EA2B0895AA930E94CA
:10060A00C702E881F0E0EE58FD4FE081A981AE0F04
:10061A000E94E20269809880229608950E94C70289
:10062A00A2E00E94E2020E94C702ACE00E94E2023B
:10063A000E94C702A1E00E94E202E0E09E2E6E2E16
:10064A000895AA93EF93FF93A8816894AA3019F0AA
:10065A00E894681430F09394E0E0EA93A92DCEDF91
:10066A0036F063948FDFD89AA8810E94E202FF9144
:10067A00EF910C949303BA93AA931A93A981BA811E
:10068A00ED91A983BA831E2FE03019F0A12FD9DF8B
:10069A00F5CF188123960895AA27BB271197F1F75A
:1006AA000895AA93D998AAB3A76FAABBBBB3BF7080
:1006BA00A8810E94D802D99A31C0AA93DA98D89808
:1006CA008880E881E058E0937402E881E054E0937E
:1006DA0075020E94DA030E94DA030E94DA03DCDF61
:1006EA00A0E2DFDFD9DFA8E20E94DF03A4E00E94D4
:1006FA00DF03A5E80E94DF03AAB3AF70AABBD99AA9
:10070A000E94FA02E53011F0E0E008C00E94C70238
:10071A00A6E00E94E2020E941303E1E021960895F6
:10072A00BA93AA93A991B991EE27FF276D916623EF
:10073A0011F03196FBCF0895BA93AA93AA27BB2743
:10074A00E991F9910590002011F01196FBCFFD0176
:10075A0008952A93AD85BE85EF85F8890995089590
:10076A00E889F9893497E88BF98B0895AD85BE85B8
:10077A00EF85F88909950895A889B98914960E9480
:10078A00FA03EE83FF83AE81BF810895A889B989F0
:10079A0014960E94FA03EA87FB870895DE011C96E5
:1007AA000E94ED030E94FA0308950E945103A0E3F8
:1007BA000C9456030E94E2020C945103109639F0ED
:1007CA00A8958AEF90E00197F1F71197C9F7089574
:1007DA000024AF0DB01D0895F195E195F0400895FC
:1007EA006F2F660F660B762F0895ED91FC91119786
:1007FA0008950590F491E02D08957A936A93FA93F7
:10080A00EA9308955A934A933A932A931A930A9326
:10081A0008955D814C813B812A811981088108955F
:00000001FF
