:020000000C945E
:100002002A000C9400000C9400000C9400000C9444
:1000120000000C9400000C9400000C9400000C945E
:1000220000000C9400000C9400000C9400000C944E
:1000320000000C9400000C9400000C9400000C943E
:1000420000000C9400000C9400000C9400000C942E
:100052000000F894EE27ECBBF1E0FBBFEBBFE5BF7D
:100062008DE0A2E0BB27ED938A95E9F780E098E066
:10007200A0E6ED930197E9F7EFE5EDBFE8E0EEBF0B
:10008200C0E6D2E00C94450004E610E0E0E0EABBF2
:10009200EBBBE7BBE8BBE4BBE5BBEFEFE1BBE0E0FA
:1000A200E2BBE3BFE2BFECBFEFBDEEBDEDBDECBD19
:1000B200E7BDE6BDEBBDEABDE9BDE8BDE2BDE5BD1C
:1000C200E4BDE3BDE9BFE5BFE4BFEAB9E0E8E8B9F2
:1000D200E0E0E0BFE6B9EDB9E6BFC89B1DC020E095
:1000E20030E02C30E0E03E0794F42FD0E8E032D04C
:1000F200ECE030D0E4E02ED0E6E02CD0E2E02AD0F2
:10010200E3E028D0E1E026D02F5F3F4FEACF1DD0B9
:10011200A8EEB3E00E94AF00C99B15C020E030E01A
:100122002C30E0E03E0754F410D0E3E013D0E6E0D8
:1001320011D0ECE00FD02F5F3F4FF2CF06D0A8EEE8
:10014200B3E00E94AF00C9CFFFCFE9E0E2BBD80124
:100152000C94AF00E2BBD8010C94AF00109639F0BA
:10016200A8958AEF90E00197F1F71197C9F70895E2
:00000001FF
