:060000000C943D000C947D
:1000060000000C9400000C9400000C9400000C946A
:1000160000000C9400000C9400000C9400000C945A
:1000260000000C9400000C9400000C9400000C944A
:1000360000000C9400000C9400000C9400000C943A
:1000460000000C9400000C9400000C940000102793
:10005600E80364000A00010000100001100001001E
:1000660073686F77203A2564000080C00200600242
:1000760070000000F894EE27ECBBF1E0FBBFEBBF8D
:10008600E5BF8DE0A2E0BB27ED938A95E9F780E016
:1000960098E0A0E6ED930197E9F7E2E7F0E08591B5
:1000A6009591009761F0A591B59105901590BF01C6
:1000B600F00105900D920197E1F7FB01F0CFEFE516
:1000C600EDBFE8E0EEBFC0E6D2E00C946A006097B0
:1000D60001E410E028E730E0E0E0EABBEBBBE1E05A
:1000E600E7BBE0E0E8BBE4BBE5BBE1BBE2BBE3BFEB
:1000F600E2BFECBFEFBDEEBDEDBDECBDE7BDE6BDBD
:10010600EBBDEABDE9BDE8BDE2BDE5BDE4BDE3BDCD
:10011600E9BFE5BFE4BFEAB9E0E8E8B9E0E0E0BF7F
:10012600E6B9EDB9E6BFA0E10E94B002809B05C02A
:100136000E94F602F8010E940503809905C00E94FC
:10014600F602F9010E940503F1CFFFCFBA93AA93F5
:100156001A930A93AA81BB8112960E946003309774
:1001660059F1AA81BB8114960E9460038F013097D2
:1001760061F00230E0E01E0798F0F80131978F0138
:10018600AA81BB811496ED93FC93AA81BB8112963A
:10019600ED91FD913196FE93EE933197AC81A0835C
:1001A600AA81BB810E946003FF232AF0ED91FD9195
:1001B6003196FE93EE9306C0AA81BB81EFEFFFEF67
:1001C600ED93FC931981088125960895BA93AA9315
:1001D60026970E946D0310E0AC85BD85E0E0F0E057
:1001E600ED93FC93EA89FB893196EA8BFB8B319779
:1001F600E4912E2FE03009F415C1E12FE03039F4F7
:10020600253211F411E002C00E9410030AC1E13048
:10021600A9F4253219F40E94100302C112E040E04D
:1002260000E02D3211F401E0FCC02B3211F44BE258
:10023600F8C0203211F440E2F4C002C0E23039F4D2
:1002460050E013E0203311F40068EBC003C0E33044
:1002560009F0E7C0203310F02A3308F007C0AAE0FF
:100266005A9F502DE22FE0535E0FDBC0E22FE3369C
:1002760049F40E941703E889F989A481AA930E9488
:100286001D03CEC0E33741F40E9417030E942303E7
:100296000E94DD021E2F0AC0E03761F40E94170398
:1002A6000E9423030E94E9021E2F086002600F7756
:1002B60030E034C0E43611F0E93611F4046002C0CF
:1002C600E53731F4E4E5F0E0EE83FF8315E00CC09A
:1002D600E83511F4086003C0E83709F0A1C0EEE57F
:1002E600F0E0EE83FF8314E002FF14C00E941703C0
:1002F6000E942D03AB85AA233AF4EA85FB850E946A
:100306005703EA87FB874DE2403011F01F5F01C0BB
:100316000B7F04C00E9417030E942D0300FD11C02D
:10032600151778F407FF08C002FF04C00B7F242FBF
:10033600115001C020E301C020E20E941003515079
:10034600EFCF312F01FF17C03030A1F003FF06C0F9
:10035600EE81FF812591EE83FF8305C0AE81BF81CB
:100366002D91AE83BF830E941003503009F0515087
:100376003150EACF4BC020E3EE81FF810E94640337
:10038600E887F987EE81FF813296EE83FF83E88561
:10039600F985AA85BB85AE17BF0750F02F5FA885E4
:1003A600B985EA85FB85EA1BFB0BEA87FB87EFCF5E
:1003B6002A3328F003FF02C0295F01C0295D04FD2E
:1003C6001AC0213320F4A885B985119709F409C00C
:1003D600531710F000FF01C013C020E207FF0BC047
:1003E60020E3006102FF07C00B7F4A930E941D03B2
:1003F600503009F051500E941003503009F051500E
:100406003150A885B985129708F0B5CF00FF08C00E
:10041600503031F05150E0E2EA930E941D03F8CFCC
:1004260010E0E0CEAC85BD850E9460030E94740397
:1004360064960895FF92F82E26970E946F030E94F5
:100446003503309719F4EFEFFFEF23C0DE01169660
:100456000E9453038D010E943503EE83FF83E0E083
:10046600E887E987DE011A960E9453030E9460031B
:10047600FA93EA931A930A93E9EAF0E0FA93EA9375
:10048600DE011A96A3DE9F01AE81BF81E0E0EC9308
:10049600F9010E9476032A96FF900895AA93EBB37A
:1004A600EF70AE2FE881E07FEA2BEBBB82E08A9506
:1004B600F1F7DA9A82E08A95F1F7DA9882E08A957E
:1004C600F1F776C0AA93A881E9DFE881E295E8838F
:1004D600A881E4DF81E18A95F1F76AC0AA93E881F1
:1004E600F0E0E05AFD4FE081A981AE0FEBDF5980C5
:1004F600488022960895A2E00E943C03ACE0E2DF29
:10050600A1E00E943C03E0E04E2E5E2E0895AA93E1
:10051600A881AA3011F0571448F0E0E0EA9343941A
:10052600A42DDCDFA881AA3009F442C05394D89ADE
:10053600A881C8DFD8983CC0BA93AA931A93A98118
:10054600BA81ED91A983BA831E2FE03019F0A12F4D
:10055600DEDFF5CF188123960895AA93EAB3E06FFC
:10056600EABBD29AD09AD19ADA98D898D998788054
:10057600E881E058E0936202E881E054E093630288
:10058600A4E1B0E00E9449030E9442030E94420394
:100596000E944203A0E282DF81E28A95F1F7A8E297
:1005A60091DFA4E08FDFA5E88DDFA6E08BDFA3DF78
:1005B60021960895BA93AA93A991B991EE27FF2798
:1005C6006D91662311F03196FBCF0895BA93AA93E5
:1005D600AA27BB27E991F9910590002011F0119601
:1005E600FBCFFD0108950E947E02E0E0EA93A0E0C1
:1005F6000E947102FE01FA93EA93E6E6F0E0FA93AE
:10060600EA9308950E945B030E94680384E00E94B7
:100616001D022896DE010C949F022A93AD85BE85A5
:10062600EF85F88909950895E889F9893497E88B63
:10063600F98B0895AD85BE85EF85F88909950895EE
:10064600A889B98914960E946003EE83FF83AE8160
:10065600BF810895A889B98914960E946003EA8724
:10066600FB870895DE011C960E9453030E946003D7
:1006760008950E946502A3E0B0E00C944903A0E34C
:100686000E94510281E28A95F1F70895109639F099
:10069600A8958AEF90E00197F1F71197C9F70895A9
:1006A6000024AF0DB01D0895F195E195F040089531
:1006B6006F2F660F660B762F0895ED91FC911197BB
:1006C60008950590F491E02D08957A936A93FA932C
:1006D600EA9308955A934A933A932A931A930A935C
:1006E60008955D814C813B812A8119810881089595
:00000001FF
