:0E0000000C9449000C9476000C9400000C94B3
:10000E0000000C9400000C9400000C9400000C9462
:10001E0092000C9400000C9400000C9400000C94C0
:10002E0000000C9400000C9400000C9400000C9442
:10003E0000000C9400000C9400000C9400000C9432
:10004E0000000C9400001027E80364000A00010071
:10005E0000100001100001000000010054696D65E0
:10006E0072302056616C75653A202564000080C0A0
:10007E0002000400660001006002680002006202D5
:10008E007C000000F894EE27ECBBF1E0FBBFEBBF69
:10009E00E5BF8DE0A2E0BB27ED938A95E9F780E0FE
:1000AE0098E0A0E6ED930197E9F7EEE7F0E0859191
:1000BE009591009761F0A591B59105901590BF01AE
:1000CE00F00105900D920197E1F7FB01F0CFEFE5FE
:1000DE00EDBFE8E0EEBFC0E6D2E00C94B200AA930A
:1000EE00BA93EA93FA93EFB7EA93A0916002B091B4
:1000FE006102E1E0F0E0EA27FB27E0936002F09373
:10010E006102F20131962F01E991EFBFF991E99168
:10011E00B991A9911895AA93BA93EA93EFB7EA9376
:10012E00A0916002B0916102119751F4A0E0C299C2
:10013E00A1E0E1E0EA2711F4C29801C0C29A05C01D
:10014E00C29B02C0C29801C0C29AE991EFBFE99169
:10015E00B991A9911895609710E0E0E0EABBEBBB6E
:10016E00E4E0E7BBE0E0E8BBE4BBE5BBE1BBE4E019
:10017E00E2BBE2E0E3BFE2ECE2BFECBFE0E0EFBDEA
:10018E00E9E0EEBDE1E0EDBDE3EFECBDE0E0E7BDA3
:10019E00E6BDE1E0EBBDE3EFEABDE0E0E9BDE8BDC1
:1001AE00E2BDE5BDE4BDE3BDE0E1E9BFEBB7E06470
:1001BE00EBBFE2E0E5BFE0E0E4BFE0E4EABFE0E091
:1001CE00EAB9E0E8E8B9E0E0E0BFE6B9EDB9E6BFCC
:1001DE00A0E10E941B0378940E94E902FE01FA93AB
:1001EE00EA93EAE6F0E0FA93EA93EDB5FF27662785
:1001FE0077270E94B40384E00E9488022896E0E0EC
:10020E00EA93A0E00E94DC02DE010E940A03A4EF42
:10021E00B1E00E949A03E0CFFFCFBA93AA931A934C
:10022E000A93AA81BB8112960E94AC03309759F1B2
:10023E00AA81BB8114960E94AC038F01309761F0A6
:10024E000230E0E01E0798F0F80131978F01AA8185
:10025E00BB811496ED93FC93AA81BB811296ED910E
:10026E00FD913196FE93EE933197AC81A083AA81D6
:10027E00BB810E94AC03FF232AF0ED91FD913196D4
:10028E00FE93EE9306C0AA81BB81EFEFFFEFED93D5
:10029E00FC931981088125960895BA93AA932697FF
:1002AE000E94B90310E0AC85BD85E0E0F0E0ED936F
:1002BE00FC93EA89FB893196EA8BFB8B3197E491AB
:1002CE002E2FE03009F415C1E12FE03039F425323C
:1002DE0011F411E002C00E9461030AC1E130A9F4D9
:1002EE00253219F40E94610302C112E040E000E0E1
:1002FE002D3211F401E0FCC02B3211F44BE2F8C0A8
:10030E00203211F440E2F4C002C0E23039F450E081
:10031E0013E0203311F40068EBC003C0E33009F0A2
:10032E00E7C0203310F02A3308F007C0AAE05A9F26
:10033E00502DE22FE0535E0FDBC0E22FE33649F47F
:10034E000E946803E889F989A481AA930E946E032A
:10035E00CEC0E33741F40E9468030E9474030E94EA
:10036E0048031E2F0AC0E03761F40E9468030E9402
:10037E0074030E9454031E2F086002600F7730E052
:10038E0034C0E43611F0E93611F4046002C0E537EA
:10039E0031F4E4E5F0E0EE83FF8315E00CC0E835C0
:1003AE0011F4086003C0E83709F0A1C0EEE5F0E0F3
:1003BE00EE83FF8314E002FF14C00E9468030E94C4
:1003CE007E03AB85AA233AF4EA85FB850E94A80337
:1003DE00EA87FB874DE2403011F01F5F01C00B7FB3
:1003EE0004C00E9468030E947E0300FD11C0151711
:1003FE0078F407FF08C002FF04C00B7F242F1150B2
:10040E0001C020E301C020E20E9461035150EFCFF2
:10041E00312F01FF17C03030A1F003FF06C0EE816F
:10042E00FF812591EE83FF8305C0AE81BF812D91A3
:10043E00AE83BF830E946103503009F0515031509A
:10044E00EACF4BC020E3EE81FF810E94B003E88724
:10045E00F987EE81FF813296EE83FF83E885F98579
:10046E00AA85BB85AE17BF0750F02F5FA885B9854B
:10047E00EA85FB85EA1BFB0BEA87FB87EFCF2A3366
:10048E0028F003FF02C0295F01C0295D04FD1AC0D8
:10049E00213320F4A885B985119709F409C05317A3
:1004AE0010F000FF01C013C020E207FF0BC020E3D5
:1004BE00006102FF07C00B7F4A930E946E0350300B
:1004CE0009F051500E946103503009F051503150E3
:1004DE00A885B985129708F0B5CF00FF08C0503037
:1004EE0031F05150E0E2EA930E946E03F8CF10E033
:1004FE00E0CEAC85BD850E94AC030E94C00364961D
:10050E000895FF92F82E26970E94BB030E94860341
:10051E00309719F4EFEFFFEF23C0DE0116960E941D
:10052E00A4038D010E948603EE83FF83E0E0E8873B
:10053E00E987DE011A960E94A4030E94AC03FA9387
:10054E00EA931A930A93E4E1F1E0FA93EA93DE0157
:10055E001A96A3DE9F01AE81BF81E0E0EC93F90114
:10056E000E94C2032A96FF900895AA93EBB3EF70F0
:10057E00AE2FE881E07FEA2BEBBB82E08A95F1F7A4
:10058E00DA9A82E08A95F1F7DA9882E08A95F1F7A5
:10059E0076C0AA93A881E9DFE881E295E883A88175
:1005AE00E4DF81E18A95F1F76AC0AA93E881F0E071
:1005BE00EE59FD4FE081A981AE0FEBDF79806880A7
:1005CE0022960895A2E00E948D03ACE0E2DFA1E046
:1005DE000E948D03E0E06E2E7E2E0895AA93A881D0
:1005EE00AA3011F0791448F0E0E0EA936394A62D56
:1005FE00DCDFA881AA3009F442C07394D89AA8818E
:10060E00C8DFD8983CC0BA93AA931A93A981BA812D
:10061E00ED91A983BA831E2FE03019F0A12FDEDFF2
:10062E00F5CF188123960895AA93EAB3E06FEABB3B
:10063E00D29AD09AD19ADA98D898D9989880E88197
:10064E00E058E0936402E881E054E0936502A4E18F
:10065E00B0E00E949A030E9493030E9493030E94AB
:10066E009303A0E282DF81E28A95F1F7A8E291DF9F
:10067E00A4E08FDFA5E88DDFA6E08BDFA3DF219658
:10068E000895BA93AA93A991B991EE27FF276D9178
:10069E00662311F03196FBCF0895BA93AA93AA2739
:1006AE00BB27E991F9910590002011F01196FBCF2F
:1006BE00FD0108952A93AD85BE85EF85F8890995CC
:1006CE000895E889F9893497E88BF98B0895AD85FB
:1006DE00BE85EF85F88909950895A889B98914967C
:1006EE000E94AC03EE83FF83AE81BF810895A8897B
:1006FE00B98914960E94AC03EA87FB870895DE0140
:10070E001C960E94A4030E94AC0308950E94D0027E
:10071E00A3E0B0E00C949A03A0E30E94BC0281E235
:10072E008A95F1F70895109639F0A8958AEF90E022
:10073E000197F1F71197C9F708950024AF0DB01D79
:10074E000895F195E195F0400895ED91FC91119782
:10075E0008950590F491E02D08957A936A93FA9393
:10076E00EA9308955A934A933A932A931A930A93C3
:10077E0008955D814C813B812A81198108810895FC
:00000001FF
